:10000000F6C080C30FC10EC10DC10CC171C40AC1BD
:1000100009C108C107C106C105C104C103C102C1AC
:1000200001C100C1FFC0000000000000005F00002F
:100030000007000700147F147F14242A7F2A12234C
:100040001308646236495522500005030000001C65
:100050002241000041221C0014083E081408083EFA
:100060000808005030000008080808080060600018
:100070000020100804023E5149453E00427F4000E6
:1000800042615149462141454B311814127F1027D6
:10009000454545393C4A494930017109050336490E
:1000A000494936064949291E0036360000005636B1
:1000B00000000814224100141414141400412214E6
:1000C000080201510906324979413E7E1111117E23
:1000D0007F494949363E414141227F4141221C7FAF
:1000E000494949417F090909013E4149497A7F0847
:1000F00008087F00417F41002040413F017F0814F4
:1001000022417F404040407F020C027F7F04081064
:100110007F3E4141413E7F090909063E4151215E32
:100120007F09192946464949493101017F01013FAB
:100130004040403F1F2040201F3F4038403F631455
:1001400008146307087008076151494543007F415F
:10015000410002040810200041417F000402010216
:1001600004404040404000010204002054545478B0
:100170007F484444383844444420384444487F3815
:1001800054545418087E0901020C5252523E7F0802
:1001900004047800447D40002040443D007F102846
:1001A000440000417F40007C041804787C0804046B
:1001B0007838444444387C14141408081414187C07
:1001C0007C080404084854545420043F4440203C14
:1001D0004040207C1C2040201C3C4030403C4428B7
:1001E0001028440C5050503C4464544C440011249A
:1001F0001FBECFE5D4E0DEBFCDBF10E0A0E6B0E08B
:10020000E6E4FBE002C005900D92AC36B107D9F7E9
:1002100010E0ACE6B0E001C01D92A63AB107E1F7EC
:10022000A2D38FC48EC38CEB90E09BBD8ABD8EB5EC
:1002300088608EBD89B7806189BF8EB583608EBDB1
:1002400008950F938093A3006093A40040939900B6
:100250002093A50000939A0021B381E090E0AC01C7
:1002600002C0440F551F6A95E2F7242B21BB41B30E
:100270009C010090A30002C0220F331F0A94E2F7F2
:10028000422B41BB41B39C010090990002C0220F58
:10029000331F0A94E2F7422B41BB41B39C0100900B
:1002A000A50002C0220F331F0A94E2F7422B41BB84
:1002B00021B300909A0002C0880F991F0A94E2F7B8
:1002C000282B21BB0F91089592B321E030E0082E36
:1002D00001C0220F0A94EAF72095292322BB089532
:1002E00092B321E030E0082E01C0220F0A94EAF711
:1002F000922B92BB08950F931F93CF93DF93C7E088
:10030000D0E0082F10E0C8010C2E02C0959587950B
:100310000A94E2F780FF04C08091A500E1DF03C0EA
:100320008091A500D1DF80919A00DADF80919A0058
:10033000CBDF219740F7DF91CF911F910F91089567
:10034000CF93C82F80919900CBDF8091A400BCDFB0
:100350008C2FD1DF8091A400CF91C2CF0F931F9338
:10036000CF93DF93082F80E0EBDF85E0089F8001CB
:100370001124C0E0D0E00A571040F801EC0FFD1F37
:100380008491DEDF2196C530D105B9F780E0DF9199
:10039000CF911F910F91D4CFCF93DF93EC0189912F
:1003A000882311F0DBDFFBCFDF91CF910895CF934E
:1003B000C82F8091990088DF8091A40085DF8C2F61
:1003C0009ADF8091A400CF918BCF8091A3007CDF36
:1003D0008091A30085DF81E2EADF81EBE8DF84E042
:1003E000E6DF84E1E4DF80E2E2DF8CE0E0CFCF9380
:1003F000DF931F92CDB7DEB780586983D8DF69815C
:1004000080E4860F0F90DF91CF91D1CFCF93DF9310
:10041000C8EFD1E080E094DF21972097D9F7DF91F2
:10042000CF9108958A98929A8BB780648BBF85B7D5
:10043000826085BF8B98939A78940895811104C047
:1004400083B7856083BF0895813009F4ECCE823094
:1004500019F485B5856085BD0895811102C022B764
:1004600008C0813019F42CB53DB506C0823019F4AE
:1004700024B530E001C00895C9010895811102C07A
:1004800012BE0895813019F41DBC1CBC0895823041
:1004900009F414BC0895F89420919B0030919C00BD
:1004A00040919D0050919E0060919F007091A0002E
:1004B0008091A1009091A2007894089510929B00E1
:1004C00010929C0010929D0010929E0010929F002E
:1004D0001092A0001092A1001092A2000895AF9275
:1004E000BF92CF92DF92EF92FF920F931F93392F1B
:1004F000A0909B00B0909C00C0909D00D0909E006A
:10050000E0909F00F090A0000091A1001091A20047
:10051000282F990F990B492F592F692F792F892F40
:10052000E9D220939B0030939C0040939D00509310
:100530009E0060939F007093A0008093A100909311
:10054000A2001F910F91FF90EF90DF90CF90BF908E
:10055000AF9008953F924F925F926F927F928F92E9
:100560009F92AF92BF92CF92DF92EF92FF920F9342
:100570001F93CF93DF93CDB7DEB72B970FB6F894C9
:10058000DEBF0FBECDBF8C016A017B014115510555
:1005900061057105B9F1312C8AE0482E512C612C8E
:1005A000712CC701B601A301920182D24B015C01FB
:1005B000C701B601681979098A099B09A30192014B
:1005C00077D269017A01E1E0F0E0EC0FFD1FE30D65
:1005D000F11D80E3880D8083339421153105410599
:1005E0005105F9F6832DF801332039F0DE01A30D12
:1005F000B11D9C9191933A94F7CFF801E80FF11D4A
:10060000108204C080E3F801808311822B960FB61C
:10061000F894DEBF0FBECDBFDF91CF911F910F9138
:10062000FF90EF90DF90CF90BF90AF909F908F9012
:100630007F906F905F904F903F900895CF93DF939E
:10064000CDB7DEB72B970FB6F894DEBF0FBECDBF88
:10065000DDDE61E080E0CBDE4091930050919400BC
:1006600060E070E0CE01019675DFCE01019694DE68
:1006700062E080E0BCDE409191005091920060E029
:1006800070E0CE01019666DFCE01019685DE63E063
:1006900080E0ADDE40918F005091900060E070E00E
:1006A000CE01019657DFCE01019676DE65E080E04F
:1006B0009EDE40916E0050E060E070E0CE01019659
:1006C00049DF84E690E068DECE01019665DE2B9678
:1006D0000FB6F894DEBF0FBECDBFDF91CF91089566
:1006E0000F93ECDE80E0AADE9EDD82E0A7DE9ADEDC
:1006F000789401E024E045E067E086E0A2DD65DE75
:100700000F9184CE1F920F920FB60F9211248F92E9
:100710009F92AF92BF92CF92DF92EF92FF920F9390
:100720001F932F933F934F935F936F937F938F9379
:100730009F93AF93BF93CF93DF93EF93FF93F8947F
:10074000AADEA0907B00B0907C00C0907D00D0908D
:100750007E00E0907F00F090800000918100109179
:100760008200D1D1A2E3E1D109F008F4A3C08091C5
:1007700063008130A1F4109263008DDE20937B0032
:1007800030937C0040937D0050937E0060937F0007
:100790007093800080938100909382008BC0809141
:1007A000950090919600A0919700B09198000196C5
:1007B000A11DB11D8093950090939600A093970082
:1007C000B093980080919100909192009093940042
:1007D0008093930080918F0090919000909392006D
:1007E0008093910058DE490180917B0090917C00BC
:1007F000A0917D00B0917E00C0917F00D0918000DB
:10080000E0918100F0918200881A990A90929000FC
:1008100080928F0040DE20937B0030937C004093D9
:100820007D0050937E0060937F00709380008093E2
:100830008100909382008091950090919600A09104
:100840009700B09198000196A11DB11D809395006D
:1008500090939600A0939700B0939800A090830087
:10086000B0908400C0908500D0908600E090870012
:10087000F09088000091890010918A0080918F008B
:10088000909190009C0140E050E060E070E080E0DA
:1008900090E030D120938300309384004093850012
:1008A000509386006093870070938800809389003E
:1008B00090938A007894FF91EF91DF91CF91BF914F
:1008C000AF919F918F917F916F915F914F913F91E8
:1008D0002F911F910F91FF90EF90DF90CF90BF90DD
:1008E000AF909F908F900F900FBE0F901F90189514
:1008F0001F920F920FB60F9211242F933F934F9395
:100900005F936F937F938F939F93AF93BF93EF9377
:10091000FF93F89481E090E0E2DD1DBC1CBC78946C
:10092000FF91EF91BF91AF919F918F917F916F91C7
:100930005F914F913F912F910F900FBE0F901F909D
:1009400018951F920F920FB60F9211248F939F93B9
:1009500088B392E0892788BB9F918F910F900FBE3B
:100960000F901F901895B99ABA9ABADEC19A88B3B7
:1009700092E0892788BBC29A8EDD20936C00309369
:100980006D0089DD20906C0030906D00E8E12E1A3A
:10099000ECEF3E0A5101C12CD12CE12CF12C00E0EE
:1009A00010E0BAD070F388B394E0892788BBC1E027
:1009B00072DD39014A01B62FA72FF82FE92F2091B8
:1009C0007B0030917C0040917D0050917E006091D1
:1009D0007F0070918000809181009091820020556D
:1009E0003B4F4F4F5F4F6F4F7F4F8F4F9F4F59017F
:1009F0006A017B018C019301A4016B2F7A2F8F2F49
:100A00009E2F8AD079F070F0C0936300109294000A
:100A10001092930010929200109291001092900008
:100A200010928F00209173003091740040917500F6
:100A300050917600609177007091780080917900F4
:100A400090917A0020573E4F4F4F5F4F6F4F7F4F2F
:100A50008F4F9F4F19012A013B014C011CDD5901A9
:100A60006A017B018C019101A201B301C40154D040
:100A700090F411DD2093730030937400409375005F
:100A8000509376006093770070937800809379009C
:100A900090937A00D3DD82B7833308F489CF8CB585
:100AA0009DB58935974008F483CF1DBC1CBC80CF11
:100AB000A1E21A2EAA1BBB1BFD010DC0AA1FBB1F62
:100AC000EE1FFF1FA217B307E407F50720F0A21BD4
:100AD000B30BE40BF50B661F771F881F991F1A9441
:100AE00069F760957095809590959B01AC01BD016B
:100AF000CF0108952A0D3B1D4C1D5D1D6E1D7F1DF0
:100B0000801F911F08952A193B094C095D096E0940
:100B10007F09800B910B08952A153B054C055D0557
:100B20006E057F058007910708950024A7FD0094B6
:100B30002A173005400550056005700580059005B1
:060B40000895F894FFCFB8
:0C0B460014080101436879623A200000A5
:00000001FF
