:10000000F6C0F4C3DFC40EC10DC10CC1EDC40AC1FA
:1000100009C108C107C106C105C104C103C102C1AC
:1000200001C100C1FFC0000000000000005F00002F
:100030000007000700147F147F14242A7F2A12234C
:100040001308646236495522500005030000001C65
:100050002241000041221C0014083E081408083EFA
:100060000808005030000008080808080060600018
:100070000020100804023E5149453E00427F4000E6
:1000800042615149462141454B311814127F1027D6
:10009000454545393C4A494930017109050336490E
:1000A000494936064949291E0036360000005636B1
:1000B00000000814224100141414141400412214E6
:1000C000080201510906324979413E7E1111117E23
:1000D0007F494949363E414141227F4141221C7FAF
:1000E000494949417F090909013E4149497A7F0847
:1000F00008087F00417F41002040413F017F0814F4
:1001000022417F404040407F020C027F7F04081064
:100110007F3E4141413E7F090909063E4151215E32
:100120007F09192946464949493101017F01013FAB
:100130004040403F1F2040201F3F4038403F631455
:1001400008146307087008076151494543007F415F
:10015000410002040810200041417F000402010216
:1001600004404040404000010204002054545478B0
:100170007F484444383844444420384444487F3815
:1001800054545418087E0901020C5252523E7F0802
:1001900004047800447D40002040443D007F102846
:1001A000440000417F40007C041804787C0804046B
:1001B0007838444444387C14141408081414187C07
:1001C0007C080404084854545420043F4440203C14
:1001D0004040207C1C2040201C3C4030403C4428B7
:1001E0001028440C5050503C4464544C440011249A
:1001F0001FBECFE5D4E0DEBFCDBF10E0A0E6B0E08B
:10020000E6E1FCE002C005900D92A837B107D9F7EE
:1002100010E0A8E7B0E001C01D92A03BB107E1F7F4
:1002200008D4F7C4EDCE83E597E09BBD8ABD8EB5BB
:1002300088608EBD8EB583608EBD08950F938093C8
:10024000AD006093AE004093A3002093AF000093F5
:10025000A40021B381E090E0AC0102C0440F551F1F
:100260006A95E2F7242B21BB41B39C010090AD00BD
:1002700002C0220F331F0A94E2F7422B41BB41B365
:100280009C010090A30002C0220F331F0A94E2F7E2
:10029000422B41BB41B39C010090AF0002C0220F32
:1002A000331F0A94E2F7422B41BB21B30090A40014
:1002B00002C0880F991F0A94E2F7282B21BB0F91E7
:1002C000089592B321E030E0082E01C0220F0A9475
:1002D000EAF72095292322BB089592B321E030E06C
:1002E000082E01C0220F0A94EAF7922B92BB0895C0
:1002F0000F931F93CF93DF93C7E0D0E0082F10E058
:10030000C8010C2E02C0959587950A94E2F780FFEC
:1003100004C08091AF00E1DF03C08091AF00D1DF66
:100320008091A400DADF8091A400CBDF219740F711
:10033000DF91CF911F910F910895CF93C82F809196
:10034000A300CBDF8091AE00BCDF8C2FD1DF80918A
:10035000AE00CF91C2CF0F931F93CF93DF93082F9F
:1003600080E0EBDF85E0089F80011124C0E0D0E051
:100370000A571040F801EC0FFD1F8491DEDF219633
:10038000C530D105B9F780E0DF91CF911F910F9172
:10039000D4CFCF93DF93EC018991882311F0DBDF79
:1003A000FBCFDF91CF910895CF93C82F8091A30009
:1003B00088DF8091AE0085DF8C2F9ADF8091AE00C0
:1003C000CF918BCF8091AD007CDF8091AD0085DF38
:1003D00081E2EADF81EBE8DF84E0E6DF84E1E4DF6D
:1003E00080E2E2DF8CE0E0CFCF93DF931F92CDB7C6
:1003F000DEB780586983D8DF698180E4860F0F906B
:10040000DF91CF91D1CFCF93DF93C8EFD1E080E0E0
:1004100094DF21972097D9F7DF91CF9108958A989B
:10042000929A8BB780648BBF85B7826085BF8B98AB
:10043000939A8BB780688BBF85B7886085BF7894A7
:100440000895811104C083B7856083BF089581300A
:1004500009F4E9CE823019F485B5856085BD08952B
:10046000811102C022B708C0813019F42CB53DB506
:1004700006C0823019F424B530E001C00895C901E6
:100480000895811102C012BE0895813019F41DBC77
:100490001CBC0895823009F414BC08952091A50075
:1004A0003091A6004091A7005091A8006091A9004A
:1004B0007091AA008091AB009091AC0008951092C9
:1004C000A5001092A6001092A7001092A80010920A
:1004D000A9001092AA001092AB001092AC000895EF
:1004E000AF92BF92CF92DF92EF92FF920F931F9342
:1004F000392FA090A500B090A600C090A700D09082
:10050000A800E090A900F090AA000091AB00109123
:10051000AC00282F990F990B492F592F692F792F4C
:10052000892F59D32093A5003093A6004093A700AC
:100530005093A8006093A9007093AA008093AB0029
:100540009093AC001F910F91FF90EF90DF90CF90B0
:10055000BF90AF9008953F924F925F926F927F92BB
:100560008F929F92AF92BF92CF92DF92EF92FF92C3
:100570000F931F93CF93DF93CDB7DEB72B970FB6B3
:10058000F894DEBF0FBECDBF8C016A017B0141151F
:10059000510561057105B9F1312C8AE0482E512CC5
:1005A000612C712CC701B601A3019201F2D24B015B
:1005B0005C01C701B601681979098A099B09A30181
:1005C0009201E7D269017A01E1E0F0E0EC0FFD1F52
:1005D000E30DF11D80E3880D8083339421153105EF
:1005E00041055105F9F6832DF801332039F0DE017C
:1005F000A30DB11D9C9191933A94F7CFF801E80FA8
:10060000F11D108204C080E3F801808311822B96D3
:100610000FB6F894DEBF0FBECDBFDF91CF911F9113
:100620000F91FF90EF90DF90CF90BF90AF909F9091
:100630008F907F906F905F904F903F900895CF93F1
:10064000DF9380919D0090919E00892B61F18091B4
:100650009B0090919C00892B31F1809199009091A1
:100660009A00892B01F12091600030916100409146
:100670009D0050919E00C0919B00D0919C00E09104
:100680009900F0919A00A0E3BAE26DD29A0140E09D
:1006900050E02C0F3D1F411D511D2E0F3F1F411DCE
:1006A000511D77D203C020E030E0A901CA01B90191
:1006B000DF91CF9108958F929F92AF92BF92CF9288
:1006C000DF92EF92FF92CF93DF93CDB7DEB72B97F8
:1006D0000FB6F894DEBF0FBECDBFB1DF4B015C019A
:1006E00092DE60E080E080DE98EEC92E93E0D92EA5
:1006F000E12CF12CC501B401A70196014AD2BA013F
:10070000A901CE01019627DFCE01019642DE84E6E3
:1007100090E03FDE61E080E067DE20919F00309155
:10072000A0004091A1005091A200A0916000B09162
:10073000610025D2A70196012CD2BA01A901CE01F0
:10074000019609DFCE01019624DE8AE690E021DEE3
:1007500062E080E049DE60919500709196008091A2
:1007600097009091980027EC3DE240E050E011D2D4
:10077000BA01A901CE010196EEDECE01019609DE95
:100780008DE690E006DE65E080E02EDE40917800A8
:1007900050E060E070E0CE010196DDDE80E790E0A1
:1007A000F8DDCE010196F5DD2B960FB6F894DEBF8D
:1007B0000FBECDBFDF91CF91FF90EF90DF90CF9034
:1007C000BF90AF909F908F9008950F9378DE80E058
:1007D00038DE29DD82E035DE22DE01E024E045E07E
:1007E00067E086E02BDDEEDD0F910DCE1F920F92BC
:1007F0000FB60F921124AF92BF92CF92DF92EF9279
:10080000FF920F931F932F933F934F935F936F9399
:100810007F938F939F93AF93BF93CF93DF93EF9388
:10082000FF9380916200813009F0B1C010926200A4
:1008300080916300813019F410926300A8C0809108
:100840009F009091A000A091A100B091A2000196FC
:10085000A11DB11D80939F009093A000A093A100C3
:10086000B093A20080919B0090919C0090939E0079
:1008700080939D008091990090919A0090939C00A4
:1008800080939B000091A5001091A6002091A700E5
:100890003091A8004091A9005091AA006091AB004E
:1008A0007091AC008091850090918600A0918700A6
:1008B000B0918800C0918900D0918A00E0918B00AE
:1008C000F0918C00081B190B10939A00009399006B
:1008D0007091A5006091A6005091A7004091A800DA
:1008E0003091A9002091AA009091AB008091AC00BA
:1008F0007093850060938600509387004093880032
:100900003093890020938A0090938B0080938C0011
:1009100080919F009091A000A091A100B091A200B1
:100920000196A11DB11D80939F009093A000A093FC
:10093000A100B093A200A0908D00B0908E00C09056
:100940008F00D0909000E0909100F0909200009184
:100950009300109194008091990090919A009C01CD
:1009600040E050E060E070E080E090E034D120931F
:100970008D0030938E0040938F00509390006093D1
:100980009100709392008093930090939400FF9154
:10099000EF91DF91CF91BF91AF919F918F917F9117
:1009A0006F915F914F913F912F911F910F91FF9008
:1009B000EF90DF90CF90BF90AF900F900FBE0F9051
:1009C0001F9018951F920F920FB60F9211248F93BC
:1009D0009F9388B392E0892788BB9F918F910F9056
:1009E0000FBE0F901F9018951F920F920FB60F9287
:1009F00011242F933F934F935F936F937F938F9324
:100A00009F93AF93BF93EF93FF938AE090E068DDED
:100A1000FF91EF91BF91AF919F918F917F916F91D6
:100A20005F914F913F912F910F900FBE0F901F90AC
:100A30001895CBDEC1E07090A5008090A600909044
:100A4000A700D091A800B091A900A091AA00F091B0
:100A5000AB00E091AC002091850030918600409180
:100A60008700509188006091890070918A00809180
:100A70008B0090918C0020553B4F4F4F5F4F6F4F35
:100A80007F4F8F4F9F4F59016A017B018C01272DAA
:100A9000382D492D5D2F6B2F7A2F8F2F9E2FB0D0A1
:100AA00079F070F0C093630010929E0010929D0048
:100AB00010929C0010929B0010929A001092990044
:100AC000A090A500B090A600C090A700D090A8006C
:100AD000E090A900F090AA000091AB001091AC004A
:100AE00020917D0030917E0040917F0050918000E8
:100AF00060918100709182008091830090918400C8
:100B000020573E4F4F4F5F4F6F4F7F4F8F4F9F4F3D
:100B100077D008F4D0DD2091850030918600409197
:100B20008700509188006091890070918A008091BF
:100B30008B0090918C00A090A500B090A600C09072
:100B4000A700D090A800E090A900F090AA00009122
:100B5000AB001091AC00ACE347D052D008F06BCFA3
:100B6000C093620068CFA29FB001B39FC001A39F52
:100B700001D0B29F700D811D1124911D0895F3DFE6
:100B8000A59F900DB49F900DA49F800D911D1124E1
:100B90000895A1E21A2EAA1BBB1BFD010DC0AA1FBE
:100BA000BB1FEE1FFF1FA217B307E407F50720F0D6
:100BB000A21BB30BE40BF50B661F771F881F991F51
:100BC0001A9469F760957095809590959B01AC019A
:100BD000BD01CF0108952A0D3B1D4C1D5D1D6E1DED
:100BE0007F1D801F911F08950024A7FD00942A0FE8
:100BF000301D401D501D601D701D801D901D0895ED
:100C00002A153B054C055D056E057F05800791079C
:060C10000895F894FFCFE7
:100C160014080101204B6D2F6800206D0020730021
:080C2600436879623A200000E6
:00000001FF
