:10000000F6C09AC316C40EC10DC10CC10BC10AC102
:1000100009C108C107C106C105C104C103C102C1AC
:1000200001C100C1FFC0000000000000005F00002F
:100030000007000700147F147F14242A7F2A12234C
:100040001308646236495522500005030000001C65
:100050002241000041221C0014083E081408083EFA
:100060000808005030000008080808080060600018
:100070000020100804023E5149453E00427F4000E6
:1000800042615149462141454B311814127F1027D6
:10009000454545393C4A494930017109050336490E
:1000A000494936064949291E0036360000005636B1
:1000B00000000814224100141414141400412214E6
:1000C000080201510906324979413E7E1111117E23
:1000D0007F494949363E414141227F4141221C7FAF
:1000E000494949417F090909013E4149497A7F0847
:1000F00008087F00417F41002040413F017F0814F4
:1001000022417F404040407F020C027F7F04081064
:100110007F3E4141413E7F090909063E4151215E32
:100120007F09192946464949493101017F01013FAB
:100130004040403F1F2040201F3F4038403F631455
:1001400008146307087008076151494543007F415F
:10015000410002040810200041417F000402010216
:1001600004404040404000010204002054545478B0
:100170007F484444383844444420384444487F3815
:1001800054545418087E0901020C5252523E7F0802
:1001900004047800447D40002040443D007F102846
:1001A000440000417F40007C041804787C0804046B
:1001B0007838444444387C14141408081414187C07
:1001C0007C080404084854545420043F4440203C14
:1001D0004040207C1C2040201C3C4030403C4428B7
:1001E0001028440C5050503C4464544C440011249A
:1001F0001FBECFE5D4E0DEBFCDBF10E0A0E6B0E08B
:10020000E2E5F9E002C005900D92A637B107D9F7F3
:1002100010E0A6E7B0E001C01D92AF38B107E1F7EA
:100220001AD395C3EDCE0F9380938C0060938D000D
:1002300040938A0020938E0000938B0021B381E0CD
:1002400090E0AC0102C0440F551F6A95E2F7242BE1
:1002500021BB41B39C0100908C0002C0220F331FD0
:100260000A94E2F7422B41BB41B39C0100908A0003
:1002700002C0220F331F0A94E2F7422B41BB41B365
:100280009C0100908E0002C0220F331F0A94E2F7F7
:10029000422B41BB21B300908B0002C0880F991FF5
:1002A0000A94E2F7282B21BB0F91089592B321E025
:1002B00030E0082E01C0220F0A94EAF72095292386
:1002C00022BB089592B321E030E0082E01C0220F36
:1002D0000A94EAF7922B92BB08950F931F93CF9342
:1002E000DF93C7E0D0E0082F10E0C8010C2E02C059
:1002F000959587950A94E2F780FF04C080918E005F
:10030000E1DF03C080918E00D1DF80918B00DADFC6
:1003100080918B00CBDF219740F7DF91CF911F9128
:100320000F910895CF93C82F80918A00CBDF8091E1
:100330008D00BCDF8C2FD1DF80918D00CF91C2CF9B
:100340000F931F93CF93DF93082F80E0EBDF85E0BF
:10035000089F80011124C0E0D0E00A571040F80146
:10036000EC0FFD1F8491DEDF2196C530D105B9F772
:1003700080E0DF91CF911F910F91D4CFCF93DF9386
:10038000EC018991882311F0DBDFFBCFDF91CF9166
:100390000895CF93C82F80918A0088DF80918D00C7
:1003A00085DF8C2F9ADF80918D00CF918BCF80914C
:1003B0008C007CDF80918C0085DF81E2EADF81EBBD
:1003C000E8DF84E0E6DF84E1E4DF80E2E2DF8CE086
:1003D000E0CFCF93DF931F92CDB7DEB7805869830C
:1003E000D8DF698180E4860F0F90DF91CF91D1CF64
:1003F000CF93DF93C8EFD1E080E094DF219720977F
:10040000D9F7DF91CF9108958A98929A8BB780643B
:100410008BBF85B7826085BF8B98939A8BB78068B6
:100420008BBF85B7886085BF78940895811104C01B
:1004300083B7856083BF0895813021F48EB58560D0
:100440008EBD0895823019F485B5856085BD089507
:10045000811102C022B708C0813019F42CB53DB516
:1004600006C0823019F424B530E001C00895C901F6
:100470000895811102C012BE0895813019F41DBC87
:100480001CBC0895823009F414BC08953F924F9229
:100490005F926F927F928F929F92AF92BF92CF9214
:1004A000DF92EF92FF920F931F93CF93DF93CDB71D
:1004B000DEB72B970FB6F894DEBF0FBECDBF8C0111
:1004C0006A017B014115510561057105B9F1312CB6
:1004D0008AE0482E512C612C712CC701B601A30172
:1004E000920113D24B015C01C701B6016819790969
:1004F0008A099B09A301920108D269017A01E1E00E
:10050000F0E0EC0FFD1FE30DF11D80E3880D80830B
:1005100033942115310541055105F9F6832DF80174
:10052000332039F0DE01A30DB11D9C9191933A94D3
:10053000F7CFF801E80FF11D108204C080E3F80145
:10054000808311822B960FB6F894DEBF0FBECDBF0D
:10055000DF91CF911F910F91FF90EF90DF90CF909F
:10056000BF90AF909F908F907F906F905F904F90D3
:100570003F900895CF92DF92EF92FF928091840096
:1005800090918500892B91F1809182009091830058
:10059000892B61F18091800090918100892B31F14C
:1005A000209160003091610060918400709185001D
:1005B0004091820050918300809180009091810051
:1005C000460F571F480F591FA0E3BAE288D16B01AD
:1005D0007C019A01A8EEB3E082D127EC3DE240E035
:1005E00050E093D1C701B60190D103C020E030E0C4
:1005F000A901CA01B901FF90EF90DF90CF90089553
:100600008F929F92AF92BF92CF92DF92EF92FF9222
:10061000CF93DF93CDB7DEB72B970FB6F894DEBF3D
:100620000FBECDBFA7DF4B015C01E2DE60E080E0E2
:10063000D0DE98EEC92E93E0D92EE12CF12CC50125
:10064000B401A701960161D1BA01A901CE010196B9
:100650001DDFCE01019692DE83E690E08FDE61E041
:1006600080E0B7DE209186003091870040918800BD
:1006700050918900A0916000B09161003CD1A70128
:10068000960143D1BA01A901CE010196FFDECE0148
:10069000019674DE89E690E071DE62E080E099DE2A
:1006A00060917B0070917C0080917D0090917E0034
:1006B00027EC3DE240E050E028D1BA01A901CE018B
:1006C0000196E4DECE01019659DE8CE690E056DE1E
:1006D00065E080E07EDE4091760050E060E070E012
:1006E000CE010196D3DE8FE690E048DECE01019682
:1006F00045DE2B960FB6F894DEBF0FBECDBFDF915F
:10070000CF91FF90EF90DF90CF90BF90AF909F90F0
:100710008F9008950F9380E089DE8EB585608EBD41
:1007200082E084DE71DE01E024E045E067E086E0FF
:100730007ADD3DDE0F915CCE1F920F920FB60F92C5
:1007400011242F933F938F939F93AF93BF938091E7
:100750006200813009F062C012BE109262001092F5
:10076000770080917F00813029F410927F001DBCBA
:100770001CBC54C08091860090918700A091880095
:10078000B09189000196A11DB11D809386009093C0
:100790008700A0938800B093890080918200909197
:1007A00083009093850080938400809180009091D5
:1007B000810090938300809382008CB59DB59093C7
:1007C0008100809380001DBC1CBC80917B009091B7
:1007D0007C00A0917D00B0917E002091800030913E
:1007E0008100820F931FA11DB11D80937B00909308
:1007F0007C00A0937D00B0937E008091800090915A
:100800008100892B31F080918000909181000397C5
:1008100028F4809176008F5F80937600BF91AF912E
:100820009F918F913F912F910F900FBE0F901F902E
:1008300018951F920F920FB60F9211248F939F93CA
:1008400088B392E0892788BB9F918F910F900FBE4C
:100850000F901F9018955EDFC1E08CB59DB5813279
:100860009E4480F0C0937F001DBC1CBC109285008C
:1008700010928400109283001092820010928100E6
:1008800010928000809178008A3518F0B9DE1092BD
:10089000780084B5813F30F0809178008F5F80933D
:1008A000780014BC82B7853B60F0809162008111B2
:1008B00008C080917700823020F48F5F80937700AA
:1008C00012BE82B7853B48F2809162008111C5CF8C
:1008D00080917700823009F6C0936200BECFA29F5C
:1008E000B001B39FC001A39F01D0B29F700D811DC5
:1008F0001124911D0895F3DFA59F900DB49F900DD5
:10090000A49F800D911D11240895A1E21A2EAA1B07
:10091000BB1BFD010DC0AA1FBB1FEE1FFF1FA217AF
:10092000B307E407F50720F0A21BB30BE40BF50BAC
:10093000661F771F881F991F1A9469F76095709535
:10094000809590959B01AC01BD01CF010895F8946D
:02095000FFCFD7
:10095200140801204B6D2F6800206D0020730043A6
:060962006879623A2000F2
:00000001FF
